:100BEA005A61646174616B2033207573706A65732E
:100BFA006E6F206E61707261766C6A656E2E0A0A7B
:100C0A00004D656D6F72696A61206A65206973704B
:100C1A007261766E612E0A0A004D656D6F72696A9D
:100C2A0061206E696A65206973707261766E612EE1
:030C3A000A0A00A3
:100C3D00D200758920758DF4758BF4D28E7598520E
:100C4D007BFF7A0B79EA120862900000AF82AE83C7
:100C5D00D3EF94FFEE947F500F74AAF0E064AA6076
:100C6D0004C2008003A380E47BFF3000067A0C7978
:0C0C7D000B80047A0C792312086280FEC0
:03000000020CB03F
:0C0CB000787FE4F6D8FD758121020C3D30
:10080000E517240BF8E60517227808300802780B64
:10081000E475F001120BB4020B5C2001EB7F2ED2C9
:10082000018018EF540F2490D43440D4FF30050BCE
:10083000EF24BFB41A0050032461FFE518600215CD
:1008400018051BE51B7002051A30080D7808E475C1
:10085000F001120BB4EF020BA2020C897403D20850
:100860008003E4C208F5178B088A09890AE4F518A1
:10087000F51AF51BE51860077F2012083B80F57517
:1008800019FFC202C201C203C204C206C207C209E2
:10089000120809FF700D3008057F0012084CAF1BCD
:1008A000AE1A22B4255FC2D5C205120809FF24D0B2
:1008B000B40A00501A75F00A781830D50508B6FF4A
:1008C0000106C6A426F620D5047002D20480D924DD
:1008D000CFB41A00EF5004C2E5D205020A4CD2028E
:1008E00080C6D20180C0D20380BCD2D580BAD206E5
:1008F00080B47F2012083B2003077401B518004024
:10090000F1120800FF12083B020874D209D20780D6
:1009100095120800FB120800FA120800F94A4B7001
:1009200006791D7A0B7BFF20032EE518602A7E00D6
:100930008E82758300120B7560060EEE651970F0DD
:10094000C2D5EBC0E0EAC0E0E9C0E0EE120A93D005
:10095000E0F9D0E0FAD0E0FB120B5CFF60AAEBC03C
:10096000E0EAC0E0E9C0E012083BD0E02401F9D0A1
:10097000E03400FAD0E0FBE5190460DCD519D98039
:10098000877BFF7A0A798FD203809C791080027965
:1009900008C207C2098008D2D5790A8004790AC240
:1009A000D5E519047002F519E4FAFDFEFF120800FE
:1009B000FC7B08200213120800FD7B1030010A1294
:1009C0000800FE120800FF7B20EC3382D592D55040
:1009D00013C3E43001069FFFE49EFEE42002039D62
:1009E000FDE49CFCE4CBF8C202EC700CCFCECDCC85
:1009F000E824F8F870F38017C3EF33FFEE33FEED11
:100A000033FDEC33FCEB33FB994002FB0FD8E9EBF1
:100A1000300205F8D0E0C448B202C0E00AEC4D4E06
:100A20004F78207B0070C2EAB5190040BCC0E012CC
:100A30000A95D0F0D0E0200204C4C0E0C4B202C0E5
:100A4000F0120824D0F0D5F0EB020874120BC409A0
:100A50001153098B5808E24C08DE42098F4F099761
:0F0A60004409974908F743099D550981460981C3
:100A6F00450981470B3D5008E62D08EA2E090D2B4D
:100A7F0008EE23090B200B262A08A64800000905BB
:100A8F003F3F3F00790AA2D5200414300609B91060
:100A9F00020404B9080104A2D52007025001042062
:100AAF0003689203B518005034C0E07F203004195A
:100ABF007F30A20372077206500F120AECC203C2F4
:100ACF0007C206C2097F30800F300603E9C0E0126B
:100ADF00083B300603D0E0F9D0E0B518CC3006174C
:100AEF007F30B9100C12083B7F583005077F788094
:100AFF0003B9080312083B3003057F2D02083B7F23
:100B0F00202009F87F2B2007F322920380CF286E35
:100B1F00756C6C2900D2021208003002F8C20278FC
:100B2F001830D50108F60208A62D5043495812086F
:100B3F00002403B405004001E4900B389312082CF5
:0D0B4F00743A12082CD20475180402098BA8
:100B5C00BB010689828A83E0225002E722BBFE0297
:090B6C00E32289828A83E49322CA
:100B7500BB010CE58229F582E5833AF583E0225035
:100B850006E92582F8E622BBFE06E92582F8E2227F
:0D0B9500E58229F582E5833AF583E4932299
:100BA200BB010689828A83F0225002F722BBFE0132
:020BB200F3222C
:100BB400FAE6FB0808E6F925F0F618E6CA3AF62242
:100BC400D083D082F8E4937012740193700DA3A3C0
:100BD40093F8740193F5828883E4737402936860D4
:060BE400EFA3A3A380DFD4
:100C8900EFB40A07740D120C94740A309811A899DC
:100C9900B8130CC2983098FDA899C298B811F630CB
:070CA90099FDC299F59922A3
:00000001FF
